:02000000405965
:20005000FF960000FF970000FF980000FE9A000000FF9C0001FE9E000000FEA0000000FE62
:0B007000A2006800FEA4006800000071
:04007B0001C3FF06B8
:208000001FC11A00FC1906081FC11A00FC1901C4F8061FC111DFBF10BF11BF1412BF131A31
:20802000401B441C11200630C0F6A96F01A9A40B6F6881A9AB32ACA90EFB20006942A94007
:208040000B00037007A94061A97001A9406FA940D842A940F6A9A940D842A9406EA62F0025
:2080600042A640FB406FA9A9A403010070081FC11A00FCBF19A92B580014ADA2A50A42A9C5
:20808000C02B30850A42A9C01C01A958F1A11AAD8101A1A5A1A9A18D1FC11A00FC190EF9BE
:2080A000081FC11A00FCBF196F301FC11A00FC6FADBF1981ADA001A4A7A6A90A42A9C02B18
:2080C000308C0A42A9C01CA90EF3AD6FAEA481C41FC11A00FC19010EF830C0470602A600BB
:2080E0004204014242A642FB8206024033A6A933A85342A6406EA6A901A88042A6406E8232
:2081000006BD0222001019BF941A221FC011CC7F94FC0C211A69208840DD22117FA9001114
:208120001A220CC4001A224080A5090DC4FFA51FBEED0095FF0AA900090DFF09FFA9000934
:20814000F5CFC4FBA580C0D5CF0CC404A60206F30A02C4021A6940120088A9E60240DD1FA2
:20816000BF0202A940DD0402A940DD000002024007361FC01C081FC400F70040002000806C
:20818000000000001FBE95EF203620E840DD1FC40004002203003240074000C14020DDC17F
:2081A00020C180C104407B201FC4C901913F80200820C0062020FFC1E008201A69004640A2
:2081C00007006640071FC41A0104FF05011F2C0000844007A64033A6A933A85342A6406EA2
:2081E000A6A901A88042A6406E034027009040071E80A940DDD04300034300BDBD01586040
:20820000A97FA88035A9A918D6FFA81304A954A94850A87FA88035A9A518D6FFA81304A976
:2082200054A901A5A4242EA9A042A656A41F74A7400340A7A9A735A8012AA9467FA903A6FE
:20824000A80000A796A2BEBE0656181618A6A9A610A1D8F3180A18A6A9A610A5A0CDE84887
:20826000E6A9E4A6A800A87FA9FFDC2000D9BDBDBDBD02015845A87FA88042A4D6A84E3BC9
:20828000A87FA880A8A9A5D6A8A4A5A800A6A4FFA5FFFFA4A5A72FA9012742A0A14FAB5A77
:2082A00041A0ABA1AB400440A7015AA719A80111A9467FA8A9A6A796A2A382BEBEBEBE067F
:2082C000A696A87FF62000F3AD00691F161A401F00021B4066004222A950A800011BC0507A
:2082E000040F00A9010404A801A6A186A7A101A7A9035C04A90109ECA9FFA8FF01053FFF15
:2083000040981A4069A9FFA8FF010EFFFF0601BDA767BEA901A858F74022404802045F5A8C
:20832000425F42001F1742AB32022002045F5A425642001F17423202205A001F1742A920E3
:208340005A001F1742200000BD1F26A91C0DABFFAAFFA9FFA8FFAB037FFF1F2622671F2676
:2083600020A703A1671F261E03A7674046BE0602581BA87FA88036A8A4D6A8FFA8810FA8CA
:20838000E20F065DA8AA2202AAA4025406200006A8FFA9FFA4F70106BDBDBD08A4CB00158F
:2083A000AD0103A188A3A402A90840BC4206444640BCCB01A2A1EA88BEBEBE0600A408A909
:2083C00081A085870EFEA9A60F000DFFA8BFFE85870EFE85870CF8065814A80156119D1F2F
:2083E00074A8FF0146A8A496AAA503A8000600A80006BDBDBD20BDBDBDAD57A0AD20BDBD12
:20840000BDADAD57A0ADAB5DA6A220440704A4FF0401020002A802A54302A501A4A50002B1
:20842000540600ABFFAAFF01AB04000004A4C4024001063EA8FF580B8E1F74A8FF014E04C7
:20844000A43706BEBEBE20AD5DA0ADBEBEBE20BD12060830BE06BD00061F22C029681A40B0
:0A846000C85803A80006010606062E
:00000001FF
